:020000040800F2
:1000000000300020011500084915000849150008B6
:1000100049150008491500084915000800000000AE
:10002000000000000000000000000000491500086A
:10003000491500080000000049150008491500088E
:1000400000000000000000000000000000000000B0
:1000500000000000000000000000000000000000A0
:100060000000000000000000000000000000000090
:100070000000000000000000000000000000000080
:100080000000000000000000000000000000000070
:100090000000000000000000000000000000000060
:1000A0000000000000000000000000000000000050
:1000B0000000000000000000000000000000000040
:1000C0000000000000000000000000000000000030
:1000D0000000000000000000000000000000000020
:1000E0000000000000000000000000000000000010
:1000F0000000000000000000000000000000000000
:1001000000000000000000000000000000000000EF
:1001100000000000000000000000000000000000DF
:1001200000000000000000000000000000000000CF
:1001300000000000000000000000000000000000BF
:1001400000000000000000000000000000000000AF
:10015000000000000000000000000000000000009F
:10016000000000000000000000000000000000008F
:10017000000000000000000000000000000000007F
:08018000000000000000000077
:100188000348044B834202D0034B03B1184770471E
:100198000C0200200C02002000000000054806495F
:1001A800091A891001EBD171491002D0034B03B130
:1001B800184770470C0200200C02002000000000C5
:1001C80010B5064C237843B9FFF7DAFF044B13B197
:1001D8000448AFF300800123237010BDA003002062
:1001E800000000009415000808B5054B1BB105492F
:1001F8000548AFF30080BDE80840FFF7CFBF00BF58
:1002080000000000A4030020941500080020704797
:1002180008B500F0A4F8002008BD08B500F099F86A
:10022800002008BDF0B5134B85B06A46044603F1BB
:100238001007164618685968154603C50833BB42A7
:100248002A46F7D1204600F088F8304600F081F8B9
:1002580000F0EAF9204600F07EF800F0ECF92046BC
:1002680000F07CF822461021722000F0D5F800201A
:1002780005B0F0BDAC15000810B5044600F06DF8E7
:1002880000F0D2F9204600F066F800F0D4F92046D4
:1002980000F064F822461021722000F0BDF800201A
:1002A80010BD00001FB5244B6A4603F11006154621
:1002B80018685968144603C40833B3422246F7D174
:1002C80000F010F900F04EF900F08AF900F040F85B
:1002D800284600F03EF8682000F0C6F9652000F0D6
:1002E800C3F96C2000F0C0F96C2000F0BDF96F2054
:1002F80000F0BAF90A2000F0B7F900F085F80F4AC3
:1003080010216B2000F06AF80D4A1021672000F0D8
:1003180065F80C4A1021702000F060F80A4A0021A4
:10032800782000F05BF8094A12216D2000F056F899
:1003380000F092F8FCE700BFBC1500082302000893
:100348002D020008810200081502000819020008A1
:10035800704701F0BDB801F0C1B8704770477047E9
:1003680001207047F0B500234F1C834201DB0020B9
:1003780020E017F8135011F81340A5F13006F6B233
:10038800092E0BD8D654A4F13005EEB2092E14D894
:10039800D45C44EA0514D4540133E6E7A5F14106D8
:1003A800052E02D8373DD554EDE7A5F16106052E97
:1003B80001D90120F0BD573DF5E7A4F14105052D10
:1003C80002D8A4F13705E3E7A4F16105052DF0D8BB
:1003D800D55C573C45EA0414DDE7000030B5094D0B
:1003E8002B680F2B0BDC3F2909D80C2404FB035482
:1003F800C4E90212013320712B60002030BD0120B6
:10040800FCE700BF0C020020024A00217620FFF71B
:10041800E5BF00BF69030008F8B515460E4600F0B1
:1004280023F90C4F6C1EC5F101052B199E4204DC03
:100438000A20BDE8F84000F017B914F8013F1B097D
:10044800F85C00F011F9237803F00F03F85C00F072
:100458000BF9EAE7CC1500082DE9F041204DB2B0C0
:1004680000F0F0F82B6800242A1D0C21A34207DCB9
:1004780033D00C27002607FB04570DF148080FE07E
:1004880001FB04F6B65C8642F3D00134EEE700F0D7
:10049800D9F80A2821D00D281FD006F808000136FF
:1004A800BB68B6EB430FF2D300F0CCF80A2801D0B2
:1004B8000D2812D10C2303FB045402AA12A9A06828
:1004C800FFF750FF48B9E36802A8984701AA8DF8DA
:1004D800040001217A20FFF79FFF32B0BDE8F081C8
:1004E8000C02002070B596B0002403264FF4A02318
:1004F8000CA80125CDE90C631094149400F0CCF8F5
:100508000F23214602A8CDE90235CDE9044406941B
:1005180000F02CFB114B5A6942F400225A615B69C6
:10052800CDE9094603F400230D4C0193019B07A96B
:100538004FF4C0432046CDE9073500F0BDFB2A46FD
:1005480020464FF4005100F079FC2A464FF48041D0
:10055800204600F073FC16B070BD00BF00100240CA
:100568000008004810B54FF4C06288B00223CDE9F6
:10057800032301210323CDE90513164C0723079311
:10058800636943F400336361636903F400330193DF
:1005980003A94FF09040019B00F08EFB0E48DFF856
:1005A8003CC04FF41643C0E900C30023C0E902333E
:1005B800036183610C234361A36943F48043A3610E
:1005C800A36903F480430293029B00F081FD08B005
:1005D80010BD00BF00100240BC03002000380140DD
:1005E800104B30B55A6942F400325A615B6987B0E2
:1005F80003F400330093009B4FF480540123CDE9AA
:1006080001430025032301A94FF09040CDE903538E
:1006180000F052FB2A4621464FF0904000F00EFCB5
:1006280007B030BD0010024001224FF480514FF056
:10063800904000F003BC00224FF480514FF09040EE
:1006480000F0FCBB13B5074C41F2883301220DF1D1
:100658000701204600F0BDFD0028F5D19DF80700F0
:1006680002B010BDBC03002007B541F288338DF8F5
:10067800070001220DF10701024800F054FD03B004
:100688005DF804FBBC030020024B1868421C1A608A
:10069800704700BFD002002003682DE9F743D9074F
:1006A800044611D423689A0700F1868023681E0740
:1006B80000F1F48023685D0700F13B81E269002ABC
:1006C80040F0CF81002021E0B7494B6803F00C03CC
:1006D800042B07D04B6803F00C03082B19D14B6887
:1006E800DB0316D54FF4003393FAA3F2096893FAA3
:1006F800A3F3B3FA83F303F01F03012202FA03F30F
:100708000B42CFD06368002BCCD1012003B0BDE8E9
:10071800F0836268B2F5803F24D10B6843F48033DC
:100728000B60CB6AA06823F00F030343CB624AB384
:10073800FFF7AAFF4FF400350746012695FAA5F3FF
:100748000A6895FAA5F3B3FA83F303F01F0306FAD0
:1007580003F31342A6D1FFF797FFC01B6428EDD916
:100768000320D3E70B6832B923F480330B600B689E
:1007780023F48023D4E7B2F5A02FF5D143F48023E6
:100788000B60CAE7FFF780FF4FF4003507460126E4
:1007980095FAA5F30A6895FAA5F3B3FA83F303F07B
:1007A8001F0306FA03F313423FF47CAFFFF76CFF15
:1007B800C01B6428ECD9D3E77B494B6813F00C0FB6
:1007C80007D04B6803F00C03082B21D14B68DF03DB
:1007D8001ED4022393FAA3F2086893FAA3F3B3FA98
:1007E80083F303F01F03012202FA03F3034202D04A
:1007F8002369934289D10868F82393FAA3F3B3FADB
:1008080083F26369934020F0F80213430B604DE7CD
:100818002269012502B395FAA5F3B3FA83F303F12C
:10082800845303F584139B0002261D60FFF72CFFF9
:10083800074696FAA6F30A6896FAA6F3B3FA83F37C
:1008480003F01F0305FA03F31342D4D1FFF71CFF8B
:10085800C01B0228EDD983E795FAA5F3B3FA83F311
:1008680003F1845303F584139B0002261A60FFF7F3
:100878000BFF074696FAA6F30A6896FAA6F3B3FAA8
:1008880083F303F01F0305FA03F313423FF40EAF9B
:10089800FFF7FAFEC01B0228ECD961E7A269424DB6
:1008A8004248012112B391FAA1F3B3FA83F3034446
:1008B8009B0002261960FFF7E7FE074696FAA6F3A3
:1008C80096FAA6F396FAA6F36A6A96FAA6F3B3FA24
:1008D80083F303F01F0301FA03F313427FF4EAAE34
:1008E800FFF7D2FEC01B0228E8D939E791FAA1F335
:1008F800B3FA83F303449B0002261A60FFF7C4FE91
:10090800074696FAA6F396FAA6F396FAA6F36A6A43
:1009180096FAA6F3B3FA83F303F01F0301FA03F37D
:1009280013423FF4C7AEFFF7AFFEC01B0228E8D959
:1009380016E71D49CB69D80033D4CB6943F08053FF
:10094800CB61CB6903F080530193019B0125184EBD
:100958003368DA052ED5E368012B3BD10B6A43F0E7
:1009680001030B62FFF790FE02268146B04601277D
:1009780096FAA6F396FAA6F3002B6AD00A6A98FAB2
:10098800A8F3B3FA83F303F01F0307FA03F3134240
:1009980056D0002D3FF492AECB6923F08053CB6143
:1009A8008CE60025D3E700BF00100240208190109C
:1009B80000700040336843F480733360FFF764FECF
:1009C80007463368DB05C6D4FFF75EFEC01B642804
:1009D800F7D9C5E633BB0B6A23F001030B620B6A38
:1009E80023F004030B62FFF74FFE02268146B04650
:1009F800012796FAA6F396FAA6F373B30A6A98FA49
:100A0800A8F3B3FA83F303F01F0307FA03F31342BF
:100A1800BFD0FFF739FE41F28833A0EB09009842B6
:100A2800E7D99DE6052B0B6A03D143F004030B625B
:100A380094E723F001030B620B6A23F0040390E7A9
:100A4800FFF722FE41F28833A0EB090098428FD9C4
:100A580086E696FAA6F34A6A91E796FAA6F34A6AF0
:100A6800CDE741494B6803F00C03082B3FF44DAE2A
:100A7800022A4FF0807351D193FAA3F3B3FA83F3A8
:100A880003F1845303F584139B0000221A60FFF7D7
:100A9800FBFD4FF000760746012596FAA6F30A6893
:100AA80096FAA6F3B3FA83F303F01F0305FA03F3E8
:100AB80013422DD1D4E908034A68034322F474127F
:100AC80013434B604FF0807393FAA3F3B3FA83F3A5
:100AD80003F1845303F584139B004FF000741D60E9
:100AE800FFF7D2FD0125064694FAA4F30A6894FAA2
:100AF800A4F3B3FA83F303F01F0305FA03F31342D5
:100B08007FF4E0ADFFF7C0FD801B0228ECD927E693
:100B1800FFF7BAFDC01B0228BFD921E693FAA3F359
:100B2800B3FA83F303F1845303F584139B00002283
:100B38001A60FFF7A9FD4FF000740646012594FAE4
:100B4800A4F30A6894FAA4F3B3FA83F303F01F0337
:100B580005FA03F313423FF4B5ADFFF795FD801B8B
:100B68000228ECD9FCE500BF00100240504AF8B555
:100B7800136803F007038B4205461BD32A689007C6
:100B880024D4D2072AD44A4A136803F007038B42B5
:100B98007AD82868430700F1828010F0080014D042
:100BA800444A2969536823F4605343EAC1035360F4
:100BB80000200AE0136823F007030B43136013684F
:100BC80003F007038B42D9D00120F8BD3948AC683F
:100BD800436823F0F00323434360D2E76A68354C47
:100BE800012A27D14FF4003393FAA3F0206893FA2F
:100BF800A3F3B3FA83F303F01F0302FA03F30342E8
:100C0800E2D0636823F003031A436260FFF73CFDF8
:100C18006B68012B064641F288371ED1636803F0E2
:100C28000C03042BAFD0FFF72FFD801BB842F5D97A
:100C38000320CAE7022A0CBF4FF00073022393FA7D
:100C4800A3F0266893FAA3F3B3FA83F303F01F0320
:100C5800012000FA03F33342D2E7022B0FD1636875
:100C680003F00C03082B8ED0FFF70EFD801BB84253
:100C7800F5D9DDE7FFF708FD801BB842D8D86368CF
:100C880013F00C0FF6D17EE7136823F007030B432C
:100C98001360136803F007038B4295D179E7054A7F
:100CA800E968536823F4E0630B43536075E700BFBA
:100CB80000200240001002402DE9F74FD1F80080D3
:100CC800DFF874915A4A002338FA03F402D103B0CA
:100CD800BDE8F08F012404FA03FA1AEA080500F0C7
:100CE8009C804C6824F0100BBBF1020F14D14FEA22
:100CF800D30C00EB8C0C03F0070EDCF820604FEAF5
:100D08008E0E0F2707FA0EF726EA07070E6906FA6E
:100D18000EF63E43CCF820604FEA430E03270668E0
:100D280007FA0EF7FF4304F0030C3E400CFA0EFCE2
:100D38000BF1FF3B4CEA0606BBF1010F066011D828
:100D4800866806EA070BCE6806FA0EFC4CEA0B0624
:100D58008660466826EA0A0AC4F300169E4046EAF8
:100D68000A064660C66837408E6806FA0EF63743AC
:100D7800E600C76051D5D9F8186046F00106C9F8F1
:100D88001860D9F8186023F0030707F1804706F0C8
:100D9800010607F58037019603F0030E019EBE6831
:100DA8004FEA8E0E4FF00F0C0CFA0EFCB0F1904F7C
:100DB80026EA0C0C33D01F4EB04232D006F58066BE
:100DC800B04230D006F58066B0422ED006F5806677
:100DD800B0420CBF0426052606FA0EF646EA0C06B3
:100DE800BE601668EF4314F4803F0CBF3E402E43AC
:100DF8001660566814F4003F0CBF3E402E43566000
:100E0800966814F4801F0CBF3E402E439660D66847
:100E1800A40254BF3E402E43D660013354E7002657
:100E2800DAE70126D8E70226D6E70326D4E700BF8B
:100E38000004014000040048001002400AB181612A
:100E4800704781627047000002688368C16930B5E5
:100E5800056914682B43456924F416442B4324F090
:100E68000C040B43234313605368C468056A23F4D6
:100E78004053234353609468836924F430642B43BC
:100E8800234393605D4B9A4212D103F558435C4C5F
:100E98001B6B03F00303E35CB1F5004F70D1082B23
:100EA8006BD8DFE803F09E9E236A9E6A6A6AA600F2
:100EB800544B9A422BD103F5E6331B6B03F44033B2
:100EC800B3F5803F00F08A8006D8002BE4D0B1F556
:100ED800004F52D0012019E0B3F5003F00F08680A2
:100EE800B3F5403FF3D1B1F5004F61D141684B08EC
:100EF80003F1F47303F59043B3FBF1F300209BB2C5
:100F080023F00F01C3F342030B43D36030BD3E4BC4
:100F18009A420ED103F5E4331B6B03F44023B3F577
:100F2800802F5BD0D1D9B3F5002F5FD0B3F5402F18
:100F3800D8E7364B9A420ED103F5E2331B6B03F424
:100F48004013B3F5801F49D0BFD9B3F5001F4DD06A
:100F5800B3F5401FC6E72E4B9A42B8D103F5E033EC
:100F68001B6B03F44003B3F5800F37D0ADD9B3F54D
:100F7800000F3BD0B3F5400FB4E701200023BFE7D3
:100F8800082BA7D801A151F823F000BFD10F000802
:100F9800D10F0008B90F0008DD0E0008D10F0008B6
:100FA800DD0E0008DD0E0008DD0E0008DB0F00086E
:100FB80041684B0803F5740303F51053B3FBF1F3D1
:100FC8009BB2D3600020A1E741684B0803F5E10319
:100FD800F4E741684B0803F50043EFE7B1F5004F2C
:100FE800F2D141684B0803F5610385E7B1F5004F7D
:100FF800EFD141684B0803F580337DE700380140A5
:10100800DC1500080044004000480040004C004047
:1010180000500040F8B5069D044616461F46206855
:10102800C26931EA02030CBF01220022B24201D098
:10103800002014E06B1CF3D095B923681A6822F4D9
:10104800D0721A609A6822F001029A60202384F80C
:10105800693084F86A30002384F868300320F8BDCA
:10106800FFF712FBC01BA842D9D9E6E737B50446FB
:101078000021C166FFF708FB23681B681A070546AD
:1010880017D423681B685B070AD56FF07E4300936B
:1010980000222B464FF480012046FFF7BBFFA0B982
:1010A8002023002084F8693084F8680084F86A30C6
:1010B8000CE06FF07E4300930A4603464FF400119C
:1010C8002046FFF7A7FF0028DBD0032003B030BD80
:1010D80010B5044628B390F8693003F0FF020BB945
:1010E80080F868202268242384F86930136823F084
:1010F800010313602046FFF7A7FE012811D02368DB
:101108005A6822F490425A609A6822F02A029A6039
:101118001A6842F0010220461A60BDE81040FFF745
:10112800A5BF012010BDF7B51F4690F86930202BE8
:101138000D46044611464AD1002D46D0002A44D017
:1011480090F86830012B42D0012380F868300023E2
:10115800C366212380F86930FFF796FA0646A4F89B
:101168005010A4F85210B4F8522092B262B9009705
:10117800334640212046FFF74DFF98B9202384F8D5
:10118800693084F868000EE0B4F852300097013BEB
:101198009BB2A4F852300022334680212046FFF744
:1011A80039FF10B1032003B0F0BDA3682268B3F57E
:1011B800805F07D123692BB935F8023BC3F30803D5
:1011C8001385D0E715F8013BFAE70120EBE7022089
:1011D800E9E72DE9F341984690F86A30202B0D464F
:1011E800044611465DD1002D59D0002A57D090F8F9
:1011F8006830012B55D0012380F8683003684FF020
:10120800FF321A620023C366222380F86A30FFF790
:101218003BFAA368A4F85810B3F5805F0746A4F812
:101228005A1015D123698BB940F2FF13A4F85C302A
:10123800B4F85C60B4F85A0080B280B9202384F80E
:101248006A3084F8680002B0BDE8F081FF23EDE75A
:10125800002BEDD12369002BF8D07F23E6E7B4F803
:101268005A30CDF80080013B9BB2A4F85A300022D6
:101278003B4620212046FFF7CDFEA0B9A26823688F
:10128800B2F5805F06D1226922B99B8C334025F8DC
:10129800023BCFE79B8C334005F8013BCAE70120AE
:1012A800D1E70220CFE70320CDE700002C4A52F80F
:1012B800043B73B503F1100118781070587850701A
:1012C80098789070D878D07004338B4202F1040279
:1012D800F2D1244B2449042201AD1C46042014F801
:1012E800016B05F8016B0138F9D1900718D19DF809
:1012F80004409DF807500C5D9DF805008DF80740E7
:1013080001EB92049DF80660085C94F800418E5D3C
:101318004D5D8DF8056060408DF806508DF804002D
:1013280013F80C0C9DF80440604018719DF80540B6
:1013380013F80B0C604058719DF8064013F80A0C1E
:10134800604098719DF8074013F8090C013260401D
:101358002C2AD87103F10403BED102B070BD00BFBE
:10136800D8020020E8020020000000200C4A70B5D6
:10137800D2F8B410131D03EB00100A1D1431131F0B
:1013880005461C7815F8016B744003F8014B93422D
:10139800F7D11A1D8A4200F10400F0D170BD00BFD8
:1013A800D8020020094B0A48D3F8B43010B5191DEB
:1013B800002213F82240045D03F822400132042A77
:1013C800F7D101338B42F3D110BD00BFD802002002
:1013D800000000200D4BD3F8B43059795A78597071
:1013E800597A5971597B5972997A5A739A789970BE
:1013F800997B9A729A799971D97B9A73DA78D970AC
:10140800D97AD973D979D972DA717047D80200209C
:10141800C3095A00134403EBC30383EA4000C0B274
:10142800704700002DE9F84F0020FFF79FFF0124C7
:10143800FFF7B8FFFFF7CEFF1F4BD3F8B41001F149
:10144800100B91F800A04E788D7891F803908AEAF5
:10145800060085EA090880EA0807FFF7D9FF8AEA43
:1014680000007840087086EA0500FFF7D1FF704059
:10147800784048704046FFF7CBFF68407840887056
:101488008AEA0900FFF7C4FF89EA00004740CF70E5
:1014980004315945D5D120460134E4B2FFF766FF3F
:1014A8000A2CC5D1FFF77EFFFFF794FF2046BDE861
:1014B800F84FFFF75BBF00BFD80200204B1E013872
:1014C8000F3113F8012F00F8012F8B42F9D1704723
:1014D800014B1860FFF7EABED802002008B50146A4
:1014E8000448C0F8B410B830FFF7E8FFBDE808407A
:1014F800FFF798BFD8020020002103E00B4B5B5890
:10150800435004310A480B4B42189A42F6D30A4A10
:1015180002E0002313600432084B9A42F9D3AFF378
:10152800008000F00FF8FEF7BDFEFEE7E8150008A2
:10153800000000200C0200200C0200202C040020D7
:10154800FEE7000070B50D4D0D4C641BA41000267D
:10155800A64209D10B4D0C4C00F018F8641BA410DE
:101568000026A64205D170BD55F8043B98470136C0
:10157800EEE755F8043B98470136F2E7E015000816
:10158800E0150008E0150008E4150008F8B500BFEC
:10159800F8BC08BC9E467047F8B500BFF8BC08BC4C
:0415A8009E467047A4
:1015AC00C15EC015DEC0DED0CAFEDEADBEEF00FFF0
:1015BC002B7E151628AED2A6ABF7158809CF4F3C5B
:1015CC00303132333435363738394142434445466D
:0415DC0001040802FC
:0415E000F10100080D
:0415E400C901000831
:1015E800637C777BF26B6FC53001672BFED7AB76D8
:1015F800CA82C97DFA5947F0ADD4A2AF9CA472C083
:10160800B7FD9326363FF7CC34A5E5F171D83115EF
:1016180004C723C31896059A071280E2EB27B27510
:1016280009832C1A1B6E5AA0523BD6B329E32F8488
:1016380053D100ED20FCB15B6ACBBE394A4C58CF80
:10164800D0EFAAFB434D338545F9027F503C9FA854
:1016580051A3408F929D38F5BCB6DA2110FFF3D222
:10166800CD0C13EC5F974417C4A77E3D645D1973D6
:1016780060814FDC222A908846EEB814DE5E0BDBD0
:10168800E0323A0A4906245CC2D3AC629195E47907
:10169800E7C8376D8DD54EA96C56F4EA657AAE0861
:1016A800BA78252E1CA6B4C6E8DD741F4BBD8B8AFC
:1016B800703EB5664803F60E613557B986C11D9E62
:1016C800E1F8981169D98E949B1E87E9CE5528DFD9
:1016D8008CA1890DBFE6426841992D0FB054BB1605
:1016E8008D01020408102040801B3652096AD5304B
:1016F80036A538BF40A39E81F3D7FB7CE339829B94
:101708002FFF87348E4344C4DEE9CB547B9432A642
:10171800C2233DEE4C950B42FAC34E082EA1662813
:10172800D924B2765BA2496D8BD12572F8F664860E
:10173800689816D4A45CCC5D65B6926C704850FD70
:10174800EDB9DA5E154657A78D9D8490D8AB008C0D
:10175800BCD30AF7E45805B8B34506D02C1E8FCA87
:101768003F0F02C1AFBD0301138A6B3A9111414F7C
:1017780067DCEA97F2CFCEF0B4E67396AC7422E752
:10178800AD3585E2F937E81C75DF6E47F11A711D32
:1017980029C5896FB7620EAA18BE1BFC563E4BC6F8
:1017A800D279209ADBC0FE78CD5AF41FDDA83388A1
:1017B80007C731B11210592780EC5F60517FA91912
:1017C800B54A0D2DE57A9F93C99CEFA0E03B4DAE3D
:1017D8002AF5B0C8EBBB3C83539961172B047EBA3A
:0C17E80077D626E169146355210C7D00C2
:0400000508001501D9
:00000001FF
